:100000000C9462000C948A000C948A000C948A0070
:100010000C948A000C948A000C948A000C948A0038
:100020000C948A000C948A000C948A000C948A0028
:100030000C948A000C948A000C948A000C948A0018
:100040000C949E030C948A000C94B0020C948A02C7
:100050000C948A000C948A000C948A000C948A00F8
:100060000C948A000C948A000000000024002700F1
:100070002A0000000000250028002B0000000000DE
:1000800023002600290004040404040404040202DA
:100090000202020203030303030301020408102007
:1000A0004080010204081020010204081020000012
:1000B0000008000201000003040700000000000027
:1000C00000003E0C11241FBECFEFD8E0DEBFCDBF35
:1000D00023E0A2E0B2E001C01D92AE32B207E1F728
:1000E00012E0A0E0B1E0E4EEF9E102C005900D926B
:1000F000A230B107D9F710E0C2E6D0E004C02197E2
:10010000FE010E94E50CC136D107C9F70E94FA062C
:100110000C94F00C0C940000FC01538D448D252FA1
:1001200030E0842F90E0821B930B541710F0CF9691
:10013000089501970895FC01918D828D981761F0C3
:10014000828DDF01A80FB11D5D968C91928D9F5F0E
:100150009F73928F90E008958FEF9FEF0895FC01B9
:10016000918D828D981731F0828DE80FF11D858D6C
:1001700090E008958FEF9FEF0895FC01918D228DFF
:10018000892F90E0805C9F4F821B91098F73992784
:10019000089581E392E00E94BD0021E0892B09F4DB
:1001A00020E0822F0895FC01848DDF01A80FB11D8E
:1001B000A35ABF4F2C91848D90E001968F7399279D
:1001C000848FA689B7892C93A089B1898C9180648A
:1001D0008C93938D848D981306C00288F389E02D4B
:1001E00080818F7D80830895EF92FF920F931F93FC
:1001F000CF93DF93EC0181E0888F9B8D8C8D9813DA
:1002000005C0E889F989808185FD24C0F62E0B8D13
:1002100010E00F5F1F4F0F731127E02E8C8DE81237
:100220000CC00FB607FCFACFE889F989808185FFF9
:10023000F5CFCE010E94D300F1CF8B8DFE01E80FE8
:10024000F11DE35AFF4FF0820B8FEA89FB89808111
:10025000806207C0EE89FF896083E889F98980811F
:100260008064808381E090E0DF91CF911F910F91B6
:10027000FF90EF900895CF93DF93EC01888D882352
:10028000C9F0EA89FB89808185FD05C0A889B98903
:100290008C9186FD0FC00FB607FCF5CF808185FFDE
:1002A000F2CFA889B9898C9185FFEDCFCE010E944C
:1002B000D300E7CFDF91CF91089580E090E0892BC4
:1002C00029F00E94C90081110C9400000895833028
:1002D00081F028F4813099F08230A1F008958730C0
:1002E000A9F08830B9F08430D1F4809180008F7DFE
:1002F00003C0809180008F7780938000089584B53B
:100300008F7702C084B58F7D84BD08958091B00041
:100310008F7703C08091B0008F7D8093B0000895E7
:10032000CF93DF93282F30E0F901E255FF4F8491FE
:10033000F901E656FF4FD491F901EA57FF4FC491F6
:10034000CC2391F081110E946701EC2FF0E0EE0FB9
:10035000FF1FE458FF4FA591B491EC91ED2381E08C
:1003600090E021F480E002C080E090E0DF91CF9146
:1003700008953FB7F8948091070290910802A091E8
:100380000902B0910A0226B5A89B05C02F3F19F0BB
:100390000196A11DB11D3FBFBA2FA92F982F882705
:1003A000820F911DA11DB11DBC01CD0142E0660F60
:1003B000771F881F991F4A95D1F708952FB7F89492
:1003C00060910302709104028091050290910602EF
:1003D0002FBF0895089580E090E008952F923F92F6
:1003E0004F925F926F927F928F929F92AF92BF9245
:1003F000CF92DF92EF92FF920F931F93CF93DF93F1
:1004000000D000D0CDB7DEB72C013B018A01190125
:10041000898D9A8DAB8DBC8D89839A83AB83BC8388
:1004200068E271E081E392E00E942806B20181E374
:1004300092E00E94EE056CE271E081E392E00E949E
:100440002806B30181E392E00E94EE0561E371E0CA
:1004500081E392E00E942806B80181E392E00E94C5
:10046000EE0566E371E081E392E00E942806B101A7
:1004700081E392E00E94EE056EE371E081E392E099
:100480000E942806B70181E392E00E94EE0567E42E
:1004900071E081E392E00E942806B60181E392E0D8
:1004A0000E94EE0563E571E081E392E00E94280678
:1004B0002AE0B501A40181E392E00E94A50568E568
:1004C00071E081E392E00E9428062AE049815A8186
:1004D0006B817C8181E392E00E94A50562EF71E06F
:1004E00081E392E00F900F900F900F90DF91CF91EA
:1004F0001F910F91FF90EF90DF90CF90BF90AF9042
:100500009F908F907F906F905F904F903F902F9033
:100510000C9428061F920F920FB60F9211242F935E
:100520003F934F935F936F937F938F939F93AF937B
:10053000BF93EF93FF9381E392E00E94D300FF917A
:10054000EF91BF91AF919F918F917F916F915F914B
:100550004F913F912F910F900FBE0F901F901895C4
:100560001F920F920FB60F9211242F938F939F9388
:10057000EF93FF93E0914102F09142028081E0917C
:100580004702F091480282FD12C0908180914A0298
:100590008F5F8F7320914B02821751F0E0914A02D6
:1005A000F0E0EF5CFD4F958F80934A0201C080819F
:1005B000FF91EF919F918F912F910F900FBE0F9010
:1005C0001F9018951F93CF93DF93282F30E0F901E8
:1005D000E255FF4F8491F901E656FF4FD491F9019E
:1005E000EA57FF4FC491CC23C9F0162F81110E9406
:1005F0006701EC2FF0E0EE0FFF1FEE58FF4FA591C3
:10060000B4918FB7F894111105C09C91ED2FE0952E
:10061000E92302C0EC91ED2BEC938FBFDF91CF91DA
:100620001F910895CF93DF93EC0160E08E810E94CB
:10063000E20261E08E810E94E20260E08E810E940F
:10064000E2028BE891E00197F1F7DF91CF910895F5
:10065000CF93DF9390E0FC01E656FF4F2491FC011D
:10066000EA57FF4F8491882361F190E0880F991F2A
:10067000FC01E859FF4FC591D491FC01EE58FF4FA2
:10068000A591B491611109C09FB7F8948881209514
:1006900082238883EC912E230BC0623061F49FB7D4
:1006A000F8943881822F809583238883EC912E2BB8
:1006B0002C939FBF06C08FB7F894E8812E2B288318
:1006C0008FBFDF91CF9108958F929F92AF92BF928B
:1006D000CF92DF92EF92FF926B017C010E94B901F1
:1006E0004B015C01C114D104E104F104F1F00E945A
:1006F000B901DC01CB0188199909AA09BB09883E17
:100700009340A105B10570F321E0C21AD108E108B8
:10071000F10888EE880E83E0981EA11CB11CC1145C
:10072000D104E104F10419F7DDCFFF90EF90DF90E1
:10073000CF90BF90AF909F908F9008951F920F928F
:100740000FB60F9211242F933F938F939F93AF93E4
:10075000BF938091030290910402A0910502B09191
:1007600006023091020223E0230F2D3720F4019678
:10077000A11DB11D05C026E8230F0296A11DB11DC4
:10078000209302028093030290930402A093050237
:10079000B09306028091070290910802A09109028D
:1007A000B0910A020196A11DB11D8093070290939A
:1007B0000802A0930902B0930A02BF91AF919F91E2
:1007C0008F913F912F910F900FBE0F901F90189512
:1007D000CF92DF92EF92FF920F931F93CF93DF930D
:1007E0007C016C0187E0C80ED11CC0E0D0E0062F70
:1007F00010E0B8010C2E02C0759567950A94E2F7D7
:100800006170F60181916F010E94E2022196C4306D
:10081000D10579F7C701DF91CF911F910F91FF901B
:10082000EF90DF90CF900C941203CF92DF92EF9273
:10083000FF920F931F93CF93DF93EC01F62E642F5B
:100840008C810E94E2028D818F3F19F060E00E944E
:10085000E2028F850F2D10E084FF25C06E0187E036
:10086000C80ED11CE12CF12CB8010E2C02C07595DC
:1008700067950A94E2F76170F60181916F010E9419
:10088000E202FFEFEF1AFF0A88E0E816F10461F7D1
:10089000CE01DF91CF911F910F91FF90EF90DF90EC
:1008A000CF900C941203B80184E0759567958A95F2
:1008B000E1F7CE010E94E8036F2DCE01DF91CF91C9
:1008C0001F910F91FF90EF90DF90CF900C94E80371
:1008D00041E00E94150481E090E0089540E00C940E
:1008E0001504CF93DF93C82FD62F0E947B056DE5AB
:1008F00071E086E193E00E9428066D2F8C2FDF9136
:10090000CF910C947B05CF92DF92EF92FF920F93E1
:100910001F93CF93DF936C017A018B01C0E0D0E08D
:10092000CE15DF0589F0D8016D918D01D601ED91CD
:10093000FC910190F081E02DC6010995892B11F4FD
:100940007E0102C02196ECCFC701DF91CF911F91AC
:100950000F91FF90EF90DF90CF9008950E94EB0CE5
:10096000EF92FF920F931F93CF93DF93EC016230CE
:1009700018F08F8588608F876B8B1C8A80E48D8B45
:1009800080E18E8B80E58F8B61E08C810E94280353
:100990008D818F3F19F061E00E94280361E08E8114
:1009A0000E9428037E0187E0E80EF11C00E010E0C1
:1009B0008F8584FD03C084E090E002C088E090E071
:1009C000081719074CF461E0F70181917F010E943B
:1009D00028030F5F1F4FECCF8BE39DE00197F1F7EA
:1009E00060E08C810E94E20260E08E810E94E2025F
:1009F0008D818F3F19F060E00E94E2026F8564FDF7
:100A00001DC063E0CE010E94E8030BE416E4C801B8
:100A10000197F1F763E0CE010E94E803C801019756
:100A2000F1F763E0CE010E94E80383E592E00197CD
:100A3000F1F762E0CE010E94E80316C06062CE01C9
:100A40000E946E048BE496E40197F1F76F85606273
:100A5000CE010E946E0483E592E00197F1F76F8565
:100A60006062CE010E946E046F856062CE010E94BA
:100A70006E0484E0888B6CE0CE010E946E0461E01D
:100A8000CE010E946E048BE39FE10197F1F782E0B3
:100A9000898B66E0CE01DF91CF911F910F91FF907E
:100AA000EF900C946E04E1E3F2E0A089B18982E05A
:100AB0008C93A485B5851C92A685B7858FEC8C9305
:100AC000108EA489B58986E08C93A289B3898C9114
:100AD00080618C93A289B3898C9188608C93A28960
:100AE000B3898C9180688C930288F389E02D808192
:100AF0008F7D80830895643008F063E0909129032E
:100B0000691710F06FEF690FE62FF0E0EA5EFC4F17
:100B10009489682F690F606886E193E00C946E04F5
:100B20006115710579F0FB0101900020E9F731971B
:100B3000AF01461B570BDC01ED91FC910280F38164
:100B4000E02D099480E090E008954F925F926F92BB
:100B50007F92EF92FF920F931F93CF93DF93CDB7C6
:100B6000DEB7A1970FB6F894DEBF0FBECDBF7C01F4
:100B7000FA01CB0119A2223008F42AE08E010F5DA0
:100B80001F4F422E512C612C712CBF01A3019201E9
:100B90000E949B0CF901CA01015011096A3014F43A
:100BA000605D01C0695CD8016C93232B242B252B3D
:100BB00061F7B801C7010E949005A1960FB6F8949D
:100BC000DEBF0FBECDBFDF91CF911F910F91FF9080
:100BD000EF907F906F905F904F900895CF92DF924B
:100BE000EF92FF920F931F93CF93DF936B01770FD9
:100BF000EE08FF08F7FE1FC0EC01E881F9810190C3
:100C0000F081E02D6DE209958C0144275527BA014A
:100C10004C195D096E097F092AE0CE010E94A505E5
:100C2000800F911FDF91CF911F910F91FF90EF9057
:100C3000DF90CF9008952AE0B701A601DF91CF9110
:100C40001F910F91FF90EF90DF90CF900C94A5052E
:100C50000C9490058F929F92AF92BF92DF92EF9289
:100C6000FF920F931F93CF93DF93EC014A015B0137
:100C70008091270290912802A0912902B0912A0226
:100C80009A01AB01281B390B4A0B5B0BDA01C90136
:100C900080339547A105B10508F443C061E08DE0BC
:100CA0000E94E20286E0E82EF12C00E010E090E4E1
:100CB000D92E64E170E080E090E00E946403D0925D
:100CC0007C0080917A00806480937A0080917A0021
:100CD00086FDFCCF209178008091790030E0382BA0
:100CE000020F131F41E0E41AF10819F764E170E004
:100CF00080E090E00E94640360E08DE00E94E202E8
:100D00008092270290922802A0922902B0922A0291
:100D1000C80166E070E00E94BD0C70930901609309
:100D2000080180912F029091300203970CF054C07B
:100D300080910801909109012091060130910701ED
:100D4000821793070CF448C0883E93400CF044C0CF
:100D500080912D0290912E02892BF1F561E087E0C0
:100D60000E94E20267EE71E081E392E00E942806B1
:100D700060E070E080E090E00E94710465EF71E057
:100D800086E193E00E942806BE01DD0F880B990BD7
:100D90000E94640360E087E00E94E20260E070E08D
:100DA00080E090E00E94710480912F0290913002C7
:100DB00001969093300280932F0281E090E090930F
:100DC0002E0280932D0283E090E090932C0280937A
:100DD0002B0281E090E002C080E090E0DF91CF91B3
:100DE0001F910F91FF90EF90DF90BF90AF909F9079
:100DF0008F900895789484B5826084BD84B58160B5
:100E000084BD85B5826085BD85B5816085BD8091D5
:100E10006E00816080936E0010928100809181004D
:100E20008260809381008091810081608093810045
:100E3000809180008160809380008091B100846007
:100E40008093B1008091B00081608093B000809168
:100E50007A00846080937A0080917A008260809327
:100E60007A0080917A00816080937A0080917A0084
:100E7000806880937A001092C10010921203109241
:100E8000130310921403109215031092D0021092C3
:100E9000D1021092D2021092D3020E94DE016B01A5
:100EA0007C014B015C0108EB800E0BE0901EA11C45
:100EB000B11C0E94DE016C157D058E059F0528F092
:100EC00086169706A806B906A0F781E392E09093EC
:100ED0001103809310030E9453050E94DE0160936A
:100EE000D0027093D1028093D2029093D3026EE627
:100EF00071E080911003909111030E9428060E94D6
:100F0000DE016B017C014B015C011AE0810E911C3A
:100F1000A11CB11C0E94DE016C157D058E059F058C
:100F200028F086169706A806B906A0F781E08093F8
:100F3000E4020E94530561E087E00E94280361E01B
:100F40008DE00E94280360E08EE00E94280362E0AA
:100F500088E00E94280362E089E00E94280362E0A2
:100F60008AE00E94280362E086E193E00E94B004D8
:100F700060E080E00E947B0560E871E086E193E03C
:100F80000E9428068090170290901802A0901902E3
:100F9000B0901A02C0902D02D0902E02E0902F0245
:100FA000F0903002009108011091090120912B026C
:100FB00030912C024091050150E06091040170E0F5
:100FC0008091030190911E029F9390911D029F9327
:100FD00090911C029F9390911B029F9390E00E941E
:100FE000EE010E94DE016093170270931802809355
:100FF000190290931A020E94DE016093130270930B
:10100000140280931502909316020E94DE016093F1
:101010000B0270930C0280930D0290930E020E94BB
:10102000DE0160931B0270931C0280931D0290935B
:101030001E0210922702109228021092290210928A
:101040002A020F900F900F900F90C1E090E6492E6A
:101050009AEE592E612C712C23E0222E312C0E9405
:10106000DE01672B682B692B41F40E94DE016230A0
:1010700071058105910508F41DC10E94DE01609390
:1010800023027093240280932502909326020091FC
:101090001F0210912002209121023091220260173C
:1010A00071078207930740F460931F027093200238
:1010B000809321029093220200911F02109120023E
:1010C00020912102309122026B017C01C01AD10AC9
:1010D000E20AF30A970186010A3F1105210531054D
:1010E00008F4E8C060931F027093200280932102ED
:1010F0009093220214EFE12EFF24F39400E010E01D
:10110000E092DC02F092DD020093DE021093DF0237
:101110001092E0021092E1021092E2021092E302B9
:101120008091D4029091D502A091D602B091D702BD
:101130008093D8029093D902A093DA02B093DB0295
:101140000E94DE016093D4027093D5028093D60290
:101150009093D7020E94DE016093D0027093D10277
:101160008093D2029093D3020E94DE016B017C0136
:1011700061E971E080911003909111030E942806AB
:101180002AE041E050E060E070E08091100390912F
:1011900011030E94A50568E971E080911003909108
:1011A00011030E9428062AE0B701A60180911003CE
:1011B000909111030E94A5056AE271E080911003ED
:1011C000909111030E9428068091D4029091D5023B
:1011D000A091D602B091D702B701A601481B590BC6
:1011E0006A0B7B0B2AE080911003909111030E94FF
:1011F000A5056AE271E080911003909111030E94AD
:1012000028064091D4025091D5026091D602709187
:10121000D7028091D8029091D902A091DA02B091C0
:10122000DB02481B590B6A0B7B0B2AE080911003F1
:10123000909111030E94A5056CE971E08091100363
:10124000909111030E9428060E94DE01AB01BC01AF
:101250002AE080911003909111030E94A50500914E
:101260001003109111036EE971E0C8010E9490050E
:101270006DE771E0C8010E9490050E94DE014B01FC
:101280005C016B017C0102E0C00ED11CE11CF11C71
:101290000E94DE01681579058A059B0508F0E7C202
:1012A0000E94DE016093D4027093D5028093D6022F
:1012B0009093D7028090170290901802A090190284
:1012C000B0901A02C0902D02D0902E02E0902F0212
:1012D000F0903002009108011091090120912B0239
:1012E00030912C024091050150E06091040170E0C2
:1012F0008091030190911E029F9390911D029F93F4
:1013000090911C029F9390911B029F9390E00E94EA
:10131000EE018AE00E94900121E00F900F900F9063
:101320000F90892B09F420E02093020180910501A0
:10133000281751F08AE00E94900121E0892B09F4DE
:1013400020E02093050102C0C09305010E94DE0148
:101350006B017C016093170270931802809319024D
:1013600090931A026DE770E080E090E00E946403C1
:1013700080910501811111C080912B0290912C0266
:10138000019690932C0280932B02C0921302D0926C
:101390001402E0921502F092160280912B029091B5
:1013A0002C028130910509F442C01CF4892B49F0CC
:1013B000ECC18230910509F4B5C0039709F42CC142
:1013C000E4C18091110290911202892BD1F060E06A
:1013D00070E080E090E00E94710461E070E080E0E5
:1013E00090E00E94710460E080E00E947B0560E86C
:1013F00071E086E193E00E9428061092120210929A
:10140000110280912F029091300203970CF0BDC120
:1014100040911702509118026091190270911A02BE
:1014200080910001909101010E942A06AEC1B7018E
:10143000A60180910001909101010E942A0600916D
:1014400006011091070188E00E949001D1E0892BEC
:1014500009F4D0E0D093030189E00E94900121E0DB
:10146000892B09F420E020930401809106019091DA
:101470000701D11102C0C29603C0211105C0C29755
:101480009093070180930601E0900601F090070118
:1014900081E00E151F0509F480E0282F30E030931D
:1014A000100220930F02209111023091120221307C
:1014B000310519F4882309F468C1009108011091DD
:1014C000090160E070E080E090E00E94710461E05A
:1014D00070E080E090E00E94710460E080E00E9493
:1014E0007B0565EA71E086E193E00E942806B80179
:1014F00086E193E00E94EE0561E080E00E947B05BA
:1015000060EB71E086E193E00E942806B70186E176
:1015100093E00E94EE0581E090E0909312028093A8
:10152000110265C0B701A6018091000190910101EF
:101530000E942A06009100011091010188E00E949A
:101540009001D1E0892B09F4D0E0D093030189E028
:101550000E94900121E0892B09F420E020930401EE
:101560008091000190910101D11103C08C599F4FCE
:1015700004C0211106C08456910990930101809303
:101580000001E0900001F090010181E00E151F05BF
:1015900009F480E0282F30E03093100220930F02EE
:1015A00020911102309112022230310519F4882362
:1015B00009F4EBC060E070E080E090E00E9471040C
:1015C0006DEB71E086E193E00E94280661E070E037
:1015D00080E090E00E947104B70186E193E00E94F0
:1015E000EE0522E030E03093120220931102809148
:1015F000170290911802A0911902B0911A028093DB
:10160000130290931402A0931502B0931602109245
:10161000100210920F02B9C080911B0290911C021F
:10162000A0911D02B0911E02892B8A2B8B2B09F0F1
:1016300078C0C0921B02D0921C02E0921D02F09270
:101640001E026FC062E370E080E090E00E946403DD
:1016500080912D0290912E02892B09F47EC00E9468
:10166000DE014B015C0160931702709318028093B6
:10167000190290931A0260E070E080E090E00E940E
:1016800071046EEC71E086E193E00E94280661E04F
:1016900070E080E090E00E9471046AED71E086E104
:1016A00093E00E94280661E070E08CE090E00E94E8
:1016B0007104D701C6018054984DA64FBF4FBC019D
:1016C000CD01681979098A099B09A30192010E9439
:1016D0009B0CBA01A9014F5F5F4F6F4F7F4F2AE00C
:1016E00086E193E00E94A505309212022092110239
:1016F00040911702509118026091190270911A02DC
:1017000080911B0290911C02A0911D02B0911E02BB
:10171000481B590B6A0B7B0B2AE081E392E00E9485
:10172000A5058090170290901802A0901902B09021
:101730001A02C0901B02D0901C02E0901D02F09093
:101740001E02D501C4018C199D09AE09BF09803C58
:101750009742A940B10508F475CF80921302909288
:101760001402A0921502B092160210922E0210924C
:101770002D0210921B0210921C0210921D02109258
:101780001E0210922C0210922B028091170290914F
:101790001802A0911902B0911A02409113025091BF
:1017A000140260911502709116026C017D01C41A39
:1017B000D50AE60AF70A20912D0230912E0201E1A6
:1017C000C01607E2D006E104F10438F440912B0280
:1017D00050912C02443051053CF02115310521F483
:1017E00010922C0210922B022130310559F42091D5
:1017F0002B0230912C022430310524F010922C025F
:1018000010922B0240910B0250910C0260910D023C
:1018100070910E026C017D01C41AD50AE60AF70A1E
:1018200001E0C0160AEBD0060BEDE006F104E0F093
:101830001092300210922F028093130290931402A0
:10184000A0931502B093160280930B0290930C02A2
:10185000A0930D02B0930E0280931B0290931C0282
:10186000A0931D02B0931E020E945D01F8CBC61624
:10187000D706E806F90608F00BCD12CDE1E3F2E059
:101880001382128288EE93E0A0E0B0E08483958317
:10189000A683B7838EE091E09183808385EC90E00E
:1018A0009587848784EC90E09787868780EC90E02A
:1018B000918B808B81EC90E0938B828B82EC90E01B
:1018C000958B848B86EC90E0978B868B118E128E95
:1018D000138E148EEEECF2E01682178210861186BB
:1018E000128613861486158616861786108A118A24
:1018F000128A138A148A158AE6E1F3E013821282AF
:1019000080E291E0918380838CE084838FEF8583F4
:101910008BE0868382E0878383E0808784E0818711
:1019200085E082871386148615861686178661E001
:10193000CF010C94B004A1E21A2EAA1BBB1BFD011F
:101940000DC0AA1FBB1FEE1FFF1FA217B307E4079E
:10195000F50720F0A21BB30BE40BF50B661F771FF6
:10196000881F991F1A9469F76095709580959095D6
:101970009B01AC01BD01CF01089597FB072E16F422
:10198000009407D077FD09D00E94D10C07FC05D048
:101990003EF4909581959F4F0895709561957F4F86
:1019A0000895AA1BBB1B51E107C0AA1FBB1FA617A6
:1019B000B70710F0A61BB70B881F991F5A95A9F7F8
:1019C00080959095BC01CD010895EE0FFF1F059005
:1019D000F491E02D099481E090E0F8940C94F00CDF
:0419E000F894FFCFA9
:1019E400401F01010101BC02E11000000000F400ED
:1019F40083048C003B01BD009B00AF00000000008D
:101A040068048304EB01EA0162313A002062323A4D
:101A1400002062333A002053656C65633A0020432A
:101A24006F6E7365633A002064656A616172726FF8
:101A3400733A002074313A002074343A0020202094
:101A44002020202020202020202020202000564D4F
:101A54004450565F317C315F564D4450560D0A0058
:101A6400204963692052616E74616E706C616E20EE
:101A740000564D4450455F003A323A007C005F56B0
:101A84004D4450450048756D69646974653A200099
:101A94004172726F736167655365743A0054656D82
:101AA40070732F6172726F73616765733A00446576
:101AB4006A61206172726F73650044656C616928A4
:101AC4006D696E293A20004172726F736167652EE9
:101AD4002E2E200A004172726F736167652E2E2EBE
:021AE400000000
:107E0000112484B714BE81FFF0D085E080938100F7
:107E100082E08093C00088E18093C10086E0809377
:107E2000C20080E18093C4008EE0C9D0259A86E02C
:107E300020E33CEF91E0309385002093840096BBD3
:107E4000B09BFECF1D9AA8958150A9F7CC24DD24C4
:107E500088248394B5E0AB2EA1E19A2EF3E0BF2EE7
:107E6000A2D0813461F49FD0082FAFD0023811F036
:107E7000013811F484E001C083E08DD089C08234E0
:107E800011F484E103C0853419F485E0A6D080C0E4
:107E9000853579F488D0E82EFF2485D0082F10E0AE
:107EA000102F00270E291F29000F111F8ED06801E7
:107EB0006FC0863521F484E090D080E0DECF843638
:107EC00009F040C070D06FD0082F6DD080E0C81688
:107ED00080E7D80618F4F601B7BEE895C0E0D1E017
:107EE00062D089930C17E1F7F0E0CF16F0E7DF06D8
:107EF00018F0F601B7BEE89568D007B600FCFDCFD4
:107F0000A601A0E0B1E02C9130E011968C91119780
:107F100090E0982F8827822B932B1296FA010C0160
:107F200087BEE89511244E5F5F4FF1E0A038BF0790
:107F300051F7F601A7BEE89507B600FCFDCF97BE46
:107F4000E89526C08437B1F42ED02DD0F82E2BD052
:107F50003CD0F601EF2C8F010F5F1F4F84911BD097
:107F6000EA94F801C1F70894C11CD11CFA94CF0C13
:107F7000D11C0EC0853739F428D08EE10CD085E9AC
:107F80000AD08FE07ACF813511F488E018D01DD067
:107F900080E101D065CF982F8091C00085FFFCCF94
:107FA0009093C60008958091C00087FFFCCF809118
:107FB000C00084FD01C0A8958091C6000895E0E648
:107FC000F0E098E1908380830895EDDF803219F02E
:107FD00088E0F5DFFFCF84E1DECF1F93182FE3DFCA
:107FE0001150E9F7F2DF1F91089580E0E8DFEE27F6
:047FF000FF270994CA
:027FFE00040479
:0400000300007E007B
:00000001FF